:10000000FAEF07F0484549474854265745494748BD
:10001000545F562E302E2E2E0D0043616C69627295
:1000200061746564206174203A203D20256C640D64
:1000300000006E657720616E6420707265207661C5
:100040006C2020617265205B256C64202620256C65
:10005000645D200A0D0054525545205745494748D4
:100060005420464F554E440A0D004F5552205354CC
:1000700041424C452056414C730A0D005B256C648F
:100080005D200A0D0000656E64206F662076616C4D
:10009000730A0D0020202020202020202020202056
:1000A00020205B554E4954535D202020203D2000E8
:1000B00020202020202020202020202020205B55D0
:1000C0004E4954535D202020203D20002020202038
:1000D0002020202020202020205B444946465D200F
:1000E00020202020203D20256C640A0D00002020C7
:1000F00020202020202020202020205B52454D4120
:10010000494E4445525D203D2025660A0D00010EF2
:10011000EA6E5B0EE96EEF500DE0060E016E006AAE
:10012000002EFED7012EFBD77B0E006E002EFED7D1
:10013000EF2EF3D712000900F5520DE0F6CF5BF178
:10014000F7CF5CF1F5509EA8FED7AD6E5BC1F6FF10
:100150005CC1F7FFF0D71200640E01015B6F000174
:10016000D6DF020E926E040EF66E000EF76EE3DF1F
:1001700057EF09F094988B9859EF09F00101636BE0
:10018000626B616B606B948682B6FDD7646B645161
:10019000170816E394988B88D890603761376237D8
:1001A000633794988B98948682A608D0010E6027B6
:1001B000D8B0612BD8B4622BD8B4632B642BE7D7AB
:1001C00094988B88800E621B94988B9860C100F085
:1001D00061C101F062C102F063C103F000013CEFB4
:1001E00001F0D8B204D0010EEA6E730EE96E006A17
:1001F000016A026A036A0101736B746B756B766B3B
:100200007251711170116F112CE0200E776FD89020
:100210006B376C376D376E377337743775377637A2
:100220007251765D08E17151755D05E17051745D43
:1002300002E16F51735D0FE36F51735F7051D8A08E
:10024000703D745F7151D8A0713D755F7251D8A037
:10025000723D765FD8800036013602360336772F3E
:10026000D6D773C1EFFF74C1ECFF75C1ECFF76C147
:10027000ECFF0001120082D703C063F102C062F1FB
:1002800001C061F100C060F1EACF65F1E9CF64F12E
:10029000D89203C06EF102C06DF101C06CF100C0D4
:1002A0006BF10101726B716B030E706FE80E6F6F73
:1002B000000197DF65C1EAFF64C1E9FF1200090090
:1002C000F6CF60F1F7CF61F1F5509EA8FED7AD6E85
:1002D00060C1F6FF61C1F7FF01015F2F01D002D0BD
:1002E0000001EDD700011200E9500101636F62AF18
:1002F0000DD06307638B5F1F601F611F621F5F2B41
:10030000D8B4602BD8B4612BD8B4622B3B0E6A6F83
:100310009A0E696FCA0E686F676B0A0E656FD88296
:10032000010EEA6E5F0EE96E62C16EF161C16DF1A0
:1003300060C16CF15FC16BF16AC172F169C171F1A9
:1003400068C170F167C16FF100014BDF01500052CD
:1003500013E101016551010AD8A402D000010CD0BB
:1003600063510DE00F0B655D01E028E263BF26D00D
:1003700063BD05D0200E1DD0200E0101631763ABB5
:100380000AD0639B00C063F12D0E9EA8FED7AD6E10
:1003900063C100F0636B300E63AB0BD0639B00C096
:1003A00063F12D0E9EA8FED7AD6E63C100F0636BA6
:1003B000300E002600509EA8FED7AD6ED8926AC1BE
:1003C0006EF169C16DF168C16CF167C16BF1726B5F
:1003D000716B706B0A0E6F6F000103DF03C06AF16F
:1003E00002C069F101C068F100C067F10101652F29
:1003F00096D7000112000101355307E1365305E19C
:10040000375303E13853D8B470D03851345D0CE31E
:100410001CE13751335D08E318E13651325D04E3E6
:1004200014E13151355D11E33451385DD8A05DD010
:100430000CE13351375DD8A058D007E13251365D19
:1004400054E303E13551315D50E25E6B5D6B5C6BF3
:100450005B6B5F6B5F51040845E300010CDF03C079
:100460005EF102C05DF101C05CF100C05BF1040E01
:1004700001013525006E000E3621016E000E372178
:10048000026E000E3821036E5E5D0CE326E1025021
:100490005D5D08E322E101505C5D04E31EE15B5118
:1004A000005C1BE3040E355D006E000E3659016ED4
:1004B000000E3759026E000E3859036E5E51035C10
:1004C0000FE30BE15D51025C0BE307E15C51015C62
:1004D00007E303E100505B5D03E2010E016E07D00C
:1004E0005F2BB8D7000E016E02D0000E016E000126
:1004F000FEEF05F09EA8FED7AD6E1200010162511D
:100500006403F3CF01F0F4CF00F06503F35000264D
:1005100063516403F3500020026E000112000101D8
:100520003C531DE13C513C2B616F636B626F656B0B
:10053000040E646F0001E2DF0150150FE96E000E3A
:100540000220EA6EEE52EE52EC6AED52EF6AED5284
:100550005EC1EFFFED525DC1EFFF8AD001015F6B1D
:100560003C515F5DD8B067D0636B5FC162F1656B72
:10057000040E646F0001C2DF02C003F00150150FCA
:10058000E96E000E0220EA6EEFCF60F1ECCF61F170
:10059000ECCF62F1ECCF63F1020E01016025006E39
:1005A000000E6121016E000E6221026E000E6321B9
:1005B000036E035209E1025207E101505E5D04E35C
:1005C00033E15D51005C30E3636B5FC162F1656BE9
:1005D000040E646F000192DF02C003F00150150F9A
:1005E000E96E000E0220EA6EEFCF60F1ECCF61F110
:1005F000ECCF62F1ECCF63F1020E0101605D006EA1
:10060000000E6159016E000E6259026E000E6359B0
:10061000036E035209E1025207E15E51015C09E3F6
:1006200003E100505D5D05E2000E016E000120D087
:1006300001015F2B95D73C513C2B616F636B626F5F
:10064000656B040E646F000159DF0150150FE96EF0
:10065000000E0220EA6EEE52EE52EC6AED52EF6AA4
:10066000ED525EC1EFFFED525DC1EFFF010E016E75
:1006700031EF06F0016A026A006A036A01015E5105
:1006800002E15D5118E0100E5F6FD8905B375C3768
:10069000003603365E51035C02E15D51005C07E306
:1006A0005D51005ED8A003065E51035ED88001361E
:1006B00002365F2FEAD7000112008E0E006E5CC179
:1006C00001F05BC102F0036A015209E102C001F0CE
:1006D000026A080E005E015202E1006A08D0D8905A
:1006E00001BE04D0023601360006F9D7019E120081
:1006F0005CC163F101016051631B63AF05D0D89405
:10070000D8905CBFD8802FD05CC163F15FC164F129
:100710005B51645F06E063AF26D0D850010AD86E03
:1007200022D060C164F15C51645F06E063AF1BD00E
:10073000D850010AD86E17D061C164F15D51645F71
:1007400006E063AF10D0D850010AD86E0CD062C159
:1007500064F15E51645F06E063AF05D0D850010AD2
:10076000D86E01D0D8900001120093948A94080E9C
:10077000016E00D00000018E10D0019E01015C339B
:100780000001D8B08A84D8A08A94018C06D0019C3C
:10079000012EF4D700D000008A84500EE96EE92EB5
:1007A000FED700D001BEE9D701BCF1D71200EACFD5
:1007B00063F1E9CF62F101015CAF08D0628F62A9F9
:1007C000622B5B1F5C1F5B2BD8B45C2B5C39F00980
:1007D0005E6F5E27E20F5F6F320F616F5C510F0B30
:1007E0005F275F276127E90F606F602760275B390C
:1007F0000F0B6027612760376137611F61375B51DD
:100800000F0B61275E37070E5D6F0A0E60076127C9
:10081000FDE35F076027FDE35E075F27FDE35D07FC
:100820005E27FDE3010EEA6E5D0EE96E070E6215AE
:10083000629DE906621507E162B9E92A62B903D04F
:10084000200E006E1CD0E926610EE95CD8B4628DE2
:10085000EF50006E08E162BD06D062B914D062B7F5
:1008600002D0200E0BD062AF06D02D0E006EED50E0
:10087000629D629F04D062876299300E002600500C
:100880009EA8FED7AD6EEE5062ADDED70001C6EF7A
:1008900007F001016851D8B471D0006E6C51D8B422
:1008A0006DD0002604E3810E002668E204D07F0E9E
:1008B000005E64E363E069C170F16D51701B698F84
:1008C0006D8F6B516F03F4CF72F16A516E03F4CFE9
:1008D00003F0F3CF71F16F03F3507227F4507123DB
:1008E000000E03226B516E03F3507227F4507123F4
:1008F000000E026A0322022269516F03F35071272E
:10090000F4500322000E022269516E03F3500326B5
:10091000F4500222000E016A01226B516D03F35064
:100920007127F4500322000E022201226A516D0346
:10093000F3500326F4500222000E012269516D0388
:10094000F3500226F4500122002A01BE05D071376F
:100950000336023601360006000E71AF0AD0032AB4
:1009600002220122015005E1025003E1035001E19E
:10097000002A70BF018E70AF019E04D0006A016A28
:10098000026A036A0001FDEF04F001016851B60834
:10099000686F036A69C16CF1698FD89069336A33F3
:1009A0006B330332023201320032682FF6D76CAF5C
:1009B0000BD0001E011E021E031E002AD8B4012AFD
:1009C000D8B4022AD8B4032A000112EF05F0E95086
:1009D0000101606F5F51626F1BE05EC16BF15DC131
:1009E0006AF15CC169F15BC168F16F6B6E6B200EDF
:1009F0006D6F820E6C6F00014CD703C05EF102C0B8
:100A00005DF101C05CF100C05BF10101622FE5D72F
:100A10005EC16BF15DC16AF15CC169F15BC168F1F6
:100A20000001B3D703C05EF102C05DF101C05CF10B
:100A300000C05BF101015EAF0DD06007608B5B1FF2
:100A40005C1F5D1F5E1F5B2BD8B45C2BD8B45D2B85
:100A5000D8B45E2B3B0E676F9A0E666FCA0E656F39
:100A6000646B0A0E626F5F51D8B4602BD882010E9E
:100A7000EA6E5B0EE96E5EC16EF15DC16DF15CC147
:100A80006CF15BC16BF167C172F166C171F165C157
:100A900070F164C16FF10001F1EC00F001500052FF
:100AA00013E101015F29625DD8A402D000010CD0DE
:100AB00060510DE00F0B625D01E03CE260BF3AD097
:100AC00060BD05D0200E31D0200E0101601760AB53
:100AD0000DD0609B5F51D8A460070050606F2D0E51
:100AE0009EA8FED7AD6E6051006E606B5F51625D77
:100AF0000BE10050606F2E0E9EA8FED7AD6E6051C8
:100B0000006E200E6017000E300E60AB0ED0609BA2
:100B10005F51D8A460070050606F2D0E9EA8FED7CD
:100B2000AD6E6051006E606B300E002600509EA8C6
:100B3000FED7AD6ED89267C16EF166C16DF165C129
:100B40006CF164C16BF1726B716B706B0A0E6F6F3D
:100B50000001F1EC00F003C067F102C066F101C0D2
:100B600065F100C064F10101622F80D70001E7EF59
:100B700007F001013C6B0001BEEC00F003C034F152
:100B800002C033F101C032F100C031F1320EF66E15
:100B9000000EF76E160E01015F6F00015FEC01F0B1
:100BA000410EE96E34C162F133C161F132C160F1CD
:100BB00031C15FF174EC01F04B0EF66E000EF76E72
:100BC000030E01015F6F00015FEC01F0410EE96E61
:100BD00038C162F137C161F136C160F135C15FF1F1
:100BE00074EC01F0510EF66E000EF76E040E01016A
:100BF0005F6F00015FEC01F0FBEF01F00152D8B430
:100C0000EFD1560EF66E000EF76E9BEC00F0010170
:100C10004D6B4C6B4B6B4A6B516B506B4F6B4E6B10
:100C2000556B546B536B526B596B586B576B566BC0
:100C30003C5145081CE30001BEEC00F003C04DF13F
:100C400002C04CF101C04BF100C04AF12E0E52DC43
:100C50004BC15CF14AC15BF14BC15EF14AC15DF130
:100C60005ED4015202E101013C6B0101E1D76A0E41
:100C7000F66E000EF76E00019BEC00F001015A6B5E
:100C80005A5145085DE3636B5AC162F1656B040E0E
:100C9000646F000133DC02C003F00150150FE96EF0
:100CA000000E0220EA6EEFCF5BF1ECCF5CF1ECCFEF
:100CB0005DF1ECCF5EF15B0E9EA8FED7AD6E410EEE
:100CC000E96E5EC162F15DC161F15CC160F15BC161
:100CD0005FF174EC01F0800EF66E000EF76E040EFC
:100CE00001015F6F00015FEC01F0640E01015B6FB9
:100CF000000187EC00F00101636B5AC162F1656B82
:100D0000040E646F00017EEC02F002C003F001509B
:100D1000150FE96E000E0220EA6EEFCF00F0ECCF67
:100D200001F0ECCF02F0ECCF03F0005001015227AC
:100D30000150532302505423035055235A2BA0D75C
:100D4000860EF66E000EF76E00019BEC00F0D89256
:100D500055C16EF154C16DF153C16CF152C16BF1CB
:100D60000101726B716B706B460E6F6F0001F1ECDD
:100D700000F003C051F102C050F101C04FF100C0BA
:100D80004EF151C159F150C158F14FC157F14EC107
:100D900056F101013851595DD8A074D00CE137519A
:100DA000585DD8A06FD007E13651575D6BE303E182
:100DB0005651355D67E23551565D396F3651575999
:100DC0003A6F3AC15CF139C15BF15E6B0E0E5D6F3B
:100DD000000150DC01C03BF13AC15CF139C15BF16B
:100DE00001015E6B0E0E5D6F000144DC00C05BF123
:100DF00003C05CF1000161DC03C041F102C040F1BD
:100E000001C03FF100C03EF101015E6B5D6B200E41
:100E10005C6F820E5B6F41C162F140C161F13FC105
:100E200060F13EC15FF1000163DC01E204E1010E0B
:100E300001013B270001940EF66E000EF76E9BEC4D
:100E400000F02D0E01015C6F00018FDC300E0101FE
:100E50003B255B6F5C6F000188DC2D0E7AEC02F0A5
:100E6000300E01013B255B6F5B5100017AEC02F013
:100E70000A0E9EA8FED7AD6E0D0E9EA8FED7AD6ED3
:100E80006AD001015651355D396F575136593A6F65
:100E90003AC15CF139C15BF15E6B0E0E5D6F000112
:100EA0003AEC03F001C03BF13AC15CF139C15BF1AE
:100EB00001015E6B0E0E5D6F00013AEC03F000C0A5
:100EC0005BF103C05CF100015DEC03F003C041F194
:100ED00002C040F101C03FF100C03EF101015E6B74
:100EE0005D6B200E5C6F820E5B6F41C162F140C191
:100EF00061F13FC160F13EC15FF1000178EC03F0A8
:100F000001E204E1010E01013B270001B00EF66E83
:100F1000000EF76E9BEC00F02B0E01015C6F0001E0
:100F200024DC300E01013B255B6F5C6F00011DDC92
:100F30002B0E7AEC02F0300E01013B255B6F5B510A
:100F400000017AEC02F00A0E9EA8FED7AD6E0D0EDF
:100F50009EA8FED7AD6EBEEC00F003C038F102C013
:100F600037F101C036F100C035F1CC0EF66E000E3F
:100F7000F76E1B0E01015F6F00015FEC01F0100EB8
:100F8000E96E3AC15CF139C15BF111D40A0E9EA839
:100F9000FED7AD6E0D0E9EA8FED7AD6EEE0EF66EB0
:100FA000000EF76E1B0E01015F6F00015FEC01F098
:100FB000890EE96E41C15EF140C15DF13FC15CF156
:100FC0003EC15BF1020E01015F6F000100D50A0E08
:100FD0009EA8FED7AD6E0D0E9EA8FED7AD6E08D0B2
:100FE00034C138F133C137F132C136F131C135F195
:100FF0005AEF09F0F86AD09EEA6AE96A0A6AB89676
:10100000400EAF6EA60EAC6E900EAB6E0B6A939058
:101010008A800C6A93948A84106A0F6A0E6A0D6A39
:10102000146A136A126A116A0101346B336B326BF2
:10103000316B386B376B366B356B3A6B396B3B6B9F
:101040003C6B3D6B416B406B3F6B3E6B456B446B48
:10105000436B426B496B486B476B466BC150C00B8F
:101060000F09C16E070EB46E046A056A156A166A26
:10107000176A186A196A1A6A1B6A1C6A1D6A1E6A4C
:101080001F6A206A216A226A236A246A256A266AFC
:10109000276A286A296A2A6A2B6A2C6A2D6A2E6AAC
:1010A0002F6A306A316A326A336A346A356A366A5C
:1010B000376A386A396A3A6A3B6A3C6A3D6A3E6A0C
:1010C0003F6A406A416A426A436A446A456A466ABC
:1010D000476A486A496A4A6A4B6A4C6A4D6A4E6A6C
:1010E0004F6A506A516A526A536A546A556A566A1C
:1010F000576A586A596A5A6A5B6A5C6A5D6A5E6ACC
:101100005F6A606A616A626A636A646A656A666A7B
:10111000676A686A696A6A6A6B6A6C6A6D6A6E6A2B
:101120006F6A706A716A726A736A746A756A766ADB
:10113000776A786A796A7A6A7B6A7C6A7D6A7E6A8B
:101140007F6A0001806B816B826B836B846B856B24
:10115000866B876B886B896B8A6B8B6B8C6B8D6BEB
:101160008E6B8F6B906B916B926B936B946B956B9B
:10117000966B976B986B996B9A6B9B6B9C6B9D6B4B
:101180009E6B9F6BA06BA16BA26BA36BA46BA56BFB
:10119000A66BA76BA86BA96BAA6BAB6BAC6BAD6BAB
:1011A000AE6BAF6BB06BB16BB26BB36BB46BB56B5B
:1011B000B66BB76BB86BB96BBA6BBB6BBC6BBD6B0B
:1011C000BE6BBF6BC06BC16BC26BC36BC46BC56BBB
:1011D000C66BC76BC86BC96BCA6BCB6BCC6BCD6B6B
:1011E000CE6BCF6BD06BD16BD26BD36BD46BD56B1B
:1011F000D66BD76BD86BD96BDA6BDB6BDC6BDD6BCB
:10120000DE6BDF6BE06BE16BE26BE36BE46BE56B7A
:10121000E66BE76BE86BE96BEA6BEB6BEC6BED6B2A
:10122000EE6BEF6BF06BF16BF26BF36BF46BF56BDA
:10123000F66BF76BF86BF96BFA6BFB6BFC6BFD6B8A
:10124000FE6BFF6B0101006B016B026B036B046BA8
:10125000056B066B076B086B096B0A6B0B6B0C6BF2
:101260000D6B0E6B0F6B106B116B126B136B146BA2
:10127000156B166B176B186B196B1A6B1B6B1C6B52
:101280001D6B1E6B1F6B206B216B226B236B246B02
:10129000256B266B276B286B296B2A6B2B6B2C6BB2
:1012A0002D6B2E6B2F6B306B0001ACEF00F0BAEFA3
:0812B00000F05FD4FED703003B
:020000040030CA
:0E00000000C2181E008781000FC00FE00F40E5
:00000001FF
;PIC18F4410
;CRC=0EBA  CREATED="17-Feb-20 17:04"
